:020000040800F2
:10000000F00500200101000899080008110400080B
:1000100095080008670200083B0B0008000000007C
:100020000000000000000000000000009D09000822
:100030006B020008000000009D0800089F090008EE
:100040001B0100081B0100081B0100081B01000820
:100050001B0100081B0100081B0100081B01000810
:100060001B0100081B0100081B0100081B01000800
:100070001B0100081B0100081B0100081B010008F0
:100080001B0100081B0100081B010008370B0008BA
:10009000390B00081B0100081B0100081B010008A8
:1000A0001B0100081B0100081B0100081B010008C0
:1000B0001B0100081B0100081B0100081B010008B0
:1000C0001B0100081B0100081B0100081B010008A0
:1000D0001B0100081B0100081B0100081B01000890
:1000E0001B0100081B0100081B010008DFF80CD0F1
:1000F00000F098F8004800472D210008F005002086
:100100000648804706480047FEE7FEE7FEE7FEE7B1
:10011000FEE7FEE7FEE7FEE7FEE7FEE7350B000839
:10012000ED000008202A04DB203A21FA02F0002129
:10013000704721FA02F3D040C2F1200291400843F7
:100140001946704710B5431A934209D2831888188C
:1001500003E010F8011D03F8011D521EF9D210BD75
:1001600040EA01039B0703D009E008C9121F08C039
:10017000042AFAD203E011F8013B00F8013B521EB9
:10018000F9D210BDD2B201E000F8012B491EFBD21A
:1001900070470022F6E710B513460A460446194692
:1001A000FFF7F0FF204610BD30B50446002003469F
:1001B00000E05B1C934203D2E05CCD5C401BF8D0B6
:1001C00030BD2DE9F05F0546002092469B468846EB
:1001D0000646814640241BE02846414647462246C3
:1001E000FFF7A0FF53465A46C01A914110D311465B
:1001F0001846224600F028F82D1A67EB01084F46F2
:1002000022460120002100F01FF817EB00094E41A3
:10021000201EA4F10104DFDC484631462A4643464D
:10022000BDE8F09F064C074D06E0E06840F0010392
:1002300094E8070098471034AC42F6D3FFF75AFF12
:10024000B4230008D4230008202A04DB203A00FA53
:1002500002F1002070479140C2F1200320FA03F31D
:1002600019439040704700BFFEE7704772B600BF69
:10027000FEE7000070B5044600F010F8064625467B
:10028000681C10B104480078054400BF00F006F86F
:10029000801BA842FAD370BD3C00002001480068D2
:1002A00070470000340000200348006803490978C3
:1002B0000844014908607047340000203C000020D9
:1002C00010B50848006840F0100006490860032097
:1002D00000F070F8002000F007F800F02BF8002084
:1002E00010BD00000020024070B504460E480078A2
:1002F0004FF47A71B1FBF0F00C490968B1FBF0F5ED
:10030000284600F06BF808B1012070BD102C07D210
:1003100000222146501E00F00EF80548046001E05E
:100320000120F2E70020F0E73C0000203000002030
:100330003800002070472DE9F05F80460D461646D4
:10034000002700F00DFC074639462A46334601F0E7
:100350000700C0F1070ABAF1040F02D94FF0040AEE
:1003600001E0C0F1070AD14600F1040ABAF1070F13
:1003700002D24FF0000A01E0A0F1030AD4464FF088
:10038000010A0AFA09FAAAF1010A0AEA020A0AFAB1
:100390000CFA4FF0010B0BFA0CFBABF1010B0BEA63
:1003A000030B4AEA0B042146404600F0E1FBBDE89E
:1003B000F09F000000BF00F00702064B19684FF6DF
:1003C000FF031940044B0B4343EA0221014B196020
:1003D00000BF70470CED00E00000FA0570B5044660
:1003E0002546681EB0F1807F01D301200FE0681E12
:1003F0004FF0E02148610F214FF0FF3000F0B8FBD3
:1004000000204FF0E021886107200861002070BDC6
:1004100000BFFEE708B541F2342000909DF80000CF
:10042000122803D103A000F08BFB02E006A000F02D
:1004300087FB08BD4350553A204269672D456E64DD
:1004400069616E0D0A0000004350553A204C6974F2
:10045000746C652D456E6469616E0D0A00000000C4
:1004600008B5054989690143034A916111468969C3
:100470000140009100BF08BD0010024008B50549C9
:1004800089690143034A91611146896901400091DC
:1004900000BF08BD001002402DE9F04102460B46A6
:1004A0001868C0F30F2595FAA5F0B0FA80F480E043
:1004B0000120A040284000287AD0082C04D240F225
:1004C000011000FA04F106E0A4F108004FF0011653
:1004D000864046F08061586808280ED11869D668B1
:1004E00026EA11260F0A97FAA7F7B7FA87F700FA54
:1004F00007F73E43D66000BF00BF586802EB1166A5
:1005000091FAA1FCBCFA8CFC4FEA8C084FF00F0C5E
:100510000CFA08FC376827EA0C0791FAA1FCBCFA30
:100520008CFC4FEA8C0C00FA0CFC47EA0C07376095
:1005300000BF5868012802D05868092838D1986847
:1005400002EB116691FAA1FCBCFA8CFC4FEA8C0814
:100550004FF0030C0CFA08FC376827EA0C0791FAF5
:10056000A1FCBCFA8CFC4FEA8C0C00FA0CFC47EAAC
:100570000C07376000BFD86802EB116691FAA1FC46
:10058000BCFA8CFC4FEA8C084FF0040C0CFA08FC07
:10059000376827EA0C0791FAA1FCBCFA8CFC4FEAF9
:1005A0008C0C00FA0CFC47EA0C07376000BF00BF58
:1005B000641C25FA04F000287FF47AAFBDE8F081CE
:1005C00002469068C1F30F231840C1F30F239842ED
:1005D00001D1012070470020FCE7C1F30F224261E6
:1005E0007047C1F30F220261704770B500EB1163D1
:1005F00091FAA1F5B5FA85F5AE000F25B5401C6856
:10060000AC4391FAA1F5B5FA85F5AD0002FA05F50E
:100610002C431C6070BD10B5044600F075F92060D5
:10062000206800F03DF96060606800F049F9A06062
:10063000606800F057F9E06010BD000001490860F3
:1006400070470000300000202DE9FF4104460D46B0
:1006500001270026204600F041F8002833D1E96840
:100660006868084329690843E16841F20C629143D4
:100670000843E060A868216921F4405101432161E9
:1006800000BF6869616921F440710143616100BF85
:100690006846FFF7C0FF0E48844201D1039E08E080
:1006A0000C48844201D1029E03E00B48844200D1F1
:1006B000029E46B1286830B10027314620462A689C
:1006C00000F011F800BF384604B0BDE8F08100002A
:1006D0000038014000440040004800400146C8681E
:1006E000C0F34030704770B501EBC10303EB011359
:1006F0009400B3FBF4F301EBC10404EB0114950087
:10070000B4FBF5F46425B4FBF5F404EBC40505EB88
:100710000414A3EB8403322404EB03136424B3FB1B
:10072000F4F303F0F00301EBC10404EB01149500B2
:10073000B4FBF5F46425B4FBF5F403EB041401EB0E
:10074000C10303EB01139500B3FBF5F301EBC10506
:1007500005EB01159600B5FBF6F56426B5FBF6F53D
:1007600005EBC50606EB0515A3EB8503322505EB66
:1007700003136425B3FBF5F303F00F0323449BB28B
:10078000836070BD00B585B014216846FFF701FD98
:100790001020FFF765FE2020FFF762FE0420FFF720
:1007A0005FFE0820FFF75CFE0D48C0F30F210D4AE5
:1007B000116100BF00900120019002900020039081
:1007C00069461046FFF768FE054800900820019032
:1007D0000120049069460448FFF75EFE05B000BDA5
:1007E00080008004000C01400008014000B58DB07D
:1007F0001C2106A8FFF7CDFC142101A8FFF7C9FCB6
:100800004FF48040FFF73AFE0420FFF737FE1D4803
:10081000019009200290032003900020049001A978
:100820001948FFF739FE194801900420029001A9E8
:100830001548FFF731FE4FF4E13006900020079095
:10084000089009900C200A9000200B900C9006A9AB
:100850000F48FFF7F9FE00BF0D48006920F49040F3
:100860000B4908610846406920F02A00486100BF32
:1008700000BF0846C06840F40050C86000BF0DB01B
:1008800000BD00000200020400080140040004044E
:100890000038014000BFFEE700BFFEE770470000E0
:1008A000014600BF0448406800F0F0000009034A18
:1008B000125C21FA02F07047001002402E2300085B
:1008C000014600BF0548406800F4E060044A02EBBE
:1008D0001020027821FA02F0704700000010024058
:1008E0003E230008014600BF0548406800F4605000
:1008F000044A02EBD020027821FA02F0704700008F
:10090000001002403E23000810B5002400BF0B4831
:10091000406800F00C0020B1042804D0082808D159
:1009200003E0074C07E0064C05E000F00BF8044636
:1009300001E0034C00BF00BF204610BD0010024084
:1009400000127A000021002200BF1148406800F424
:10095000803002461AB1B2F5803F0CD101E00D495A
:100960000BE000BF0A484068C0F34040401C0A4BFF
:10097000B3FBF0F101E0074900BF00BF00BF04482E
:10098000406800F47010022303EB90404843704726
:100990000010024000093D0000127A00704710B5B7
:1009A000FFF782FC10BD000010B501205D49096809
:1009B00021F0070101435B4A116000BF00BF00BF87
:1009C0005848006800F007000128F8D100BF5648D9
:1009D000006840F480305449086000BF00BF00BF89
:1009E00051480068C0F340400028F8D000BF4E488E
:1009F000406A40F001004C49486200BF00BF00BFA0
:100A00004948406AC0F340000028F8D000BF47487A
:100A1000006840F480704549086000BF00BF42484C
:100A2000006A00F44070B0F5007F17D000BF3E4868
:100A3000006A40F480303C49086200BF00BF0846AD
:100A4000006A20F48030086200BF4815096A21F46A
:100A500040710143344A116200BF00BF00BF3248F9
:100A6000006A40F400403049086200BF4FF4803013
:100A70004FF440212C4A526822F47C1200F4403397
:100A80000B431A43284B5A6000BF00BF184600684A
:100A900040F080701946086000BF00BF00BF2248C8
:100AA0000068C0F340600028F8D000201E49496863
:100AB00021F0F00101431C4A516000BF101511469E
:100AC000496821F4E0610143516000BF00201146F4
:100AD000496821F460510143516000BF0220114672
:100AE000496821F003010143516000BF00BF00BF0E
:100AF0000D48406800F00C000828F8D10C48FFF7BA
:100B00009DFD0020FFF7F0FB08B1FFF7AFFB4FF4AE
:100B100080000549496821F480010143024A51607F
:100B200000BF10BD002002400010024000700040D5
:100B3000005A620270477047704700BFFEE700002E
:100B40000FB4054B10B503A9044A029800F034F81D
:100B500010BC5DF814FB0000AD17000898000020E1
:100B600002480068C0F30220704700000CED00E06E
:100B700010B5002804DB0A07130E054A135406E0DB
:100B80000A07140E034A00F00F031B1FD45410BDB4
:100B900000E400E018ED00E002E008C8121F08C100
:100BA000002AFAD170477047002001E001C1121FEE
:100BB000002AFBD1704700002DE9FF4F8DB00F4692
:100BC0000546002606E025280BD0DDE90F129047E8
:100BD0006D1C761C28780028F5D111B03046BDE890
:100BE000F08F0024A246A1460122EC4900E0044314
:100BF00015F8013F203B02FA03F00842F7D12878AC
:100C00002A2810D06FF02F022878A0F1300109298E
:100C100014D80AEB8A0102EB410144F0020400EB14
:100C2000010A6D1CF0E701CF5FEA000A03D544F426
:100C30000054CAF1000A44F002046D1C28782E28E2
:100C400017D115F8010F44F004042A280ED06FF0D4
:100C50002F022878A0F1300109290AD809EB89016F
:100C600002EB410100EB01096D1CF2E757F8049B10
:100C70006D1C28786C280FD006DC4C2817D068280B
:100C80000DD06A2814D104E0742810D07A280FD12E
:100C90000DE044F400140AE044F4801401E044F44C
:100CA00040146978814202D104F580146D1C6D1CDA
:100CB0002A786E2A1FD00CDC632A31D004DC002A8B
:100CC0008BD0582A11D1A3E0642A68D0692A0CD1AC
:100CD00065E0732A2ED004DC6F2A73D0702A04D109
:100CE0009BE0752A6FD0782A6ED01046DDE90F128E
:100CF0009047761C50E1C4F30250022806D0032826
:100D000009D0042801CF09D0066045E101CFF117D1
:100D1000C0E9006140E101CF06803DE106703BE1A2
:100D200017F8040B8DF8000000208DF80100EB4649
:100D3000012003E057F804BB4FF0FF3061074FF08C
:100D4000000102D40DE008F10101884649450FDA9F
:100D50008045F8DB1BF808100029F4D108E008F101
:100D6000010188468142FADB1BF808100029F6D100
:100D7000DDE90F23AAEB08008146214600F036F991
:100D8000304400EB080604E0DDE90F121BF8010B0C
:100D90009047B8F10108F7D221464846F7E00A210A
:100DA000C4F302534FF0000B0891022B04D001CF83
:100DB000C117032B09D00AE0FF1D27F00707F7E84A
:100DC000020108E032E01FE020E000B2C117042B6E
:100DD00001D140B2C117031E71F1000307DA4FF0D1
:100DE000000CD0EB0C006CEB01012D2302E023057D
:100DF00004D52B238DF82430012303E0E30701D031
:100E00002023F7E7984658E00A2110E010210EE071
:100E100010204FF0000B08900CE010214FF0000B59
:100E200044F004044FF00809089103E008214FF052
:100E3000000B0891C4F30253022B04D001CF002110
:100E4000032B06D006E0FF1D27F00707F7E8020195
:100E500003E080B2042B00D1C0B24FF0000823079A
:100E60002BD5702A07D0DDF820C08CF0100C5CEA7E
:100E70000B0C05D00EE040238DF82430012308E050
:100E800050EA010306D030238DF824308DF8252058
:100E900002239846DDF820C08CF0080C5CEA0B0CAD
:100EA0000BD150EA010301D1630706D530238DF839
:100EB00024304FF00108A9F10109582A04D038A2C2
:100EC0000B9208AA0A920BE03AA2F9E75B46089A4D
:100ED000FFF777F90B9B9B5C0A9A521E0A921370DC
:100EE00050EA0102F2D10A98ADEB000000F1200BAC
:100EF000600702D524F4803401E04FF00109D945A0
:100F000002DDA9EB0B0000E0002000EB0B014144E7
:100F10000890AAEB010AE00306D4DDE90F2321467D
:100F2000504600F063F806444FF0000908E009A9B4
:100F300011F80900DDE90F12904709F10109761C4B
:100F4000C145F4DBE0030CD5DDE90F232146504613
:100F500000F04CF8064404E0DDE90F123020904721
:100F6000761C0899481E08900029F5DC08E00A98CC
:100F70000A990078491C0A91DDE90F129047761C06
:100F8000BBF10001ABF1010BF1DC21465046DDE97C
:100F90000F2300F019F806446D1C1BE60928010018
:100FA00030313233343536373839616263646566DF
:100FB00000000000303132333435363738394142A1
:100FC00043444546000000002DE9F0410446002559
:100FD0001E461746880404D405E039462020B04751
:100FE0006D1C641EF9D52846BDE8F0812DE9F0415D
:100FF000044600251E469046C80301D5302700E070
:101000002027880404D505E041463846B0476D1CCA
:10101000641EF9D52846BDE8F0812DE9F04104466B
:101020000D46002048F2050700211DE0012318E0CD
:1010300015F8018008EA0308B8F1000F02D04FF05C
:10104000010801E04FF00008C446C6134FF6FF78D0
:1010500008EA4000B44500D078404FEA43684FEAC0
:101060001863002BE4DC491CA142DFD310704FEA67
:10107000202882F80180BDE8F08170B504466078D0
:10108000801EC5B2601C46193246611C2846FFF717
:10109000C4FF70BD38B504462578A81EC5B26A469F
:1010A00021462846FFF7B9FF9DF80000615D8842A0
:1010B00007D19DF80110681C205C814201D10020FD
:1010C00038BDE520FCE730B505460C460220A0708F
:1010D000072060702046FFF7D0FF002030BD2DE9CB
:1010E000F84F05460C46204601F070F881464FF057
:1010F000010A00BF052740F2E248204601F07CF8D3
:10110000824600BF207C032806D0204600F0C3FAA8
:10111000061E01D1032020742068007810B9032036
:10112000287005E020680078012801D17720287018
:101130006878431C2A464946204600F0C1F8064616
:10114000E72802D10020207406E0207C032801D08B
:10115000032020744FF0000ABAF10000AAF1010A3E
:10116000D0DC06B136E03846FFF784F800BFC02176
:10117000A81DFFF70EF8C02000906B46AA1D494637
:10118000204600F030F8061E00D107E00220FFF7ED
:1011900071F8B8F10000A8F10108E8D100BF06B16C
:1011A00018E0BDF80000042807DABDF800000028A8
:1011B00001DDE62600E0E7260CE0A81DFFF76AFF48
:1011C000061E00D006E0A81D00F080FF061E00D01D
:1011D00000E000BF00BF204600F045F90220207467
:1011E0003046BDE8F88F2DE9F84307468846154696
:1011F0001E46F02406B125B9E22001F078F8BDE8DA
:10120000F88301200090384600F0FFFF38B13346E4
:101210002A460021384600F0FBFE04464EE000BF9F
:1012200000231A460421384600F06AFE0446F52CD5
:1012300001D004B13BE06B462A464146384600F0F7
:10124000E7FE04461CB1204601F051F82FE0287853
:1012500000903088BDF80010884204DAED2001F0DB
:1012600046F8044623E0BDF80000042804DAE6202E
:1012700001F03DF804461AE0BDF80000401E80B2BF
:1012800000906B466A1C4146384600F0C1FE044699
:1012900024B1204601F02BF8044608E0BDF8000018
:1012A000401C80B20090BDF80000308000BF00BF3D
:1012B00000231A460521384600F022FE20469EE70C
:1012C0002DE9F0410746884616461C46F02506B132
:1012D00024B9E22001F00BF8BDE8F081384600F0B7
:1012E00094FF38B1631E3246FF21384600F0AAFE53
:1012F000054616E000231A460421384600F000FE99
:101300000546F52D00D035B92346324641463846CC
:1013100000F098FE054600231A460521384600F0E5
:10132000EFFD2846D8E72DE9F04780468946174665
:101330001E46089C4FF0000A08F0030524B9E2207D
:1013400000F0D5FFBDE8F0873DB1022D05D0012D9D
:1013500003D0E22000F0CBFFF4E700BF00202080A4
:1013600006F007060DB1012D05D1F8002080208878
:10137000304320800BE04FF6FF7000EAC900208068
:10138000208830432080208840EA0720208000BF4A
:101390005046D7E72DE9F04105460E4617461C4654
:1013A0004FF0000805B124B9E22000F0A0FFBDE82D
:1013B000F08128684078A0B926B1012E05D0022E10
:1013C00009D105E0582020600AE04020206007E0B5
:1013D0002020206004E0E22000F089FF804600BF6A
:1013E0003FE028684078042814D126B1012E05D0AA
:1013F000022E09D105E0582020600AE0002020607C
:1014000007E02020206004E0E22000F070FF80462A
:1014100000BF26E026B1012E05D0022E1BD105E02B
:10142000802020601CE04020206019E0082F02DAB4
:10143000242020600EE0082F03D14FF4D0702060EC
:1014400008E0102F02DA4820206003E0E22000F0DC
:101450004EFF804604E0E22000F049FF804600BFD6
:1014600000BF4046A3E7F8B50446E225204600F059
:10147000CCFE18B9204600F0DBFE20B1204600F07B
:101480005FFD05460DE002200090204600F09EFE24
:10149000064601236A463146204600F0D3FD054644
:1014A00000BF2846F8BD2DE9FF4F8FB00E461C4601
:1014B0001D9FE1200E9000200D9000258046824661
:1014C0004FF020098346049003904EB1012E07D0BF
:1014D000022E05D0E22000F00AFF13B0BDE8F08F25
:1014E000022E06D111980F2803DDE22000F0FFFE46
:1014F000F3E70FB90020F0E71C9818B9E22000F0DC
:10150000F6FEEAE700BF0DAB3146119A0F98FFF7E0
:1015100041FF0E9018B10E9800F0E9FE5BE0E01973
:101520000D99884203D9E22000F0E1FED5E74FEAA9
:10153000541849E0B9F1200F09D10D98A0EB4810DB
:10154000202804D24FF004092819C0F3820A05A903
:101550000AF0FF0008F0FF038DE803023146119AFC
:101560000F9800F03BF80E9018B10E9800F0BFFEF7
:101570002CE04FEA481000EB8A0003900398A04249
:1015800003D20398A4EB000B01E04FF0000B781B93
:10159000A9EB0B01884202D2781B049002E0A9EB70
:1015A0000B00049005AA02EB0B011C9A5019049A37
:1015B000FEF7C8FD04980544B9F1200F02D108F1E7
:1015C000010801E00AF1010ABD42B3D300BF0E9841
:1015D00000B100E000BF00BF0E987EE72DE9F04F9C
:1015E000B5B006460C4617469846DDE93EA9409D33
:1015F0004FF0E10B00BF16B1B9F1000F04D1E220AA
:1016000000F075FE834641E0042D06D0202D04D065
:10161000E22000F06CFE834638E002A853464246C2
:10162000394600902046FFF77EFEB0F1000B03D054
:10163000584600F05CFE29E0202D01D144F08004E2
:101640008DF80F40BDF80800ADF81000304600F0EE
:10165000CBFD03A90190FFF736FDB0F1000B03D0DD
:10166000584600F044FE11E0314603A8FFF737FD6D
:10167000B0F1000B03D0584600F039FE06E02A46D0
:101680000DF113014846FEF75DFD00BF00BF58464F
:1016900035B0BDE8F08F70B50546E226284600F06B
:1016A0002EFC0446BCB12068A8B1204600F0ADFD78
:1016B00018B9284600F0BCFD20B1204600F0E3FC3C
:1016C000064608E02068007820B9284600F006F8B1
:1016D000064600E00026304670BD00002DE9FF41BF
:1016E0000646E22401200390304600F008FC05463F
:1016F000002D54D0284600F07FFD8046304600F093
:1017000065FD074600BF286880682749884212D9CE
:1017100008460290042302AA0621284600F0F0FBA6
:101720000446F52C08D100231A461946284600F035
:10173000E7FB044631E00024002303AA19462846AB
:1017400000F080FC0220FEF795FD0420009034B9E3
:101750006B4601AA3946284600F05AFC044674B983
:10176000286880681049884209D9286880680290F2
:10177000042302AA0621284600F0C2FB04462CB925
:10178000BDF8001001A800F021F80446B8F10000EF
:10179000A8F1010801DD002CB5D100BF00BF204633
:1017A00004B0BDE8F0810000A08601000A46C1B285
:1017B000054B596000BF00BF00BF03490968C1F372
:1017C000C0110029F8D07047003801407CB50546AB
:1017D0000C460EA0006801900DA000680090042C3B
:1017E00001D0D0207CBD042201A92846FEF7DCFCF4
:1017F00008B90020F6E7042269462846FEF7D4FC23
:1018000008B9D720EEE7D020ECE7000004113343FD
:101810000407C44030B524E0B0F5617F02D94FF42D
:10182000617500E005462C464FF0E025A96930259A
:1018300005FB1412002A08DB00BF4FF0E025AB695E
:101840008B420DDA9342F8DA0AE04BF680352A44EF
:1018500000BF4FF0E025AB698B42FADD9342F8DC24
:10186000001B0028D8D130BD10B504463CB120681B
:1018700028B1062901D1002010BDF520FCE7E220A7
:10188000FAE7000070B506460C4606B10CB9E22036
:1018900070BD6079022801DBF020F9E760791E490C
:1018A00001EB0015A868002830DC61791B4850F86E
:1018B00021001B49086061791848083050F8210060
:1018C0001849086060791549103951F82010124AFA
:1018D00002EB0010016061791048083850F82110BF
:1018E000607902EB0010416062790B4B03EB02124E
:1018F0005168627903EB0212106800F0CFFA00F031
:1019000001F96079E8600120A86002E0A868401C45
:10191000A860F5600020BBE7D00000207800002020
:101920009000002094000020014600207047000035
:101930002DE9F05F82460D4616461F46504600F0E0
:10194000F9FA8046E62498F80590D8F828B00F4AAE
:1019500002EB091251680D4A02EB0912106800F0FF
:101960009DFA09E00121284600F058F804461CB908
:101970003878314600F0ECF8BBF10000ABF1010B18
:1019800001DD002CEED12046BDE8F09FD000002004
:1019900070B505462C468CB1A068401EA06000289A
:1019A0000CDC074BE26803EB02125168E26803EBC0
:1019B0000212106800F072FA0020A060002070BDD2
:1019C000D00000202DE9F04781460D4616461C4602
:1019D000484600F0AFFA8246EA279AF805800E4A98
:1019E00002EB081251680C4A02EB0812106800F072
:1019F00055FA0021284600F011F8074617B138467D
:101A0000BDE8F08724B1E0B2314600F0D9F90746CD
:101A100000F01AFA3846F3E7D00000202DE9F04133
:101A200004460D46EA2644EA050700F0E1F9384687
:101A300000F03CF906460EB100F006FA3046BDE86B
:101A4000F081000070B50346E22401B3FAB1002032
:101A500008E000EB40050F4E16F825509D4200D1DE
:101A600002E0401C0028F4D000BF70B900EB400534
:101A7000084E06EB85056D680D6000EB400506EB32
:101A80008505AD681560002400E0E12400BF204614
:101A900070BD00005C0000202DE9F04104460D46B9
:101AA0001646E22734B12DB1207832462946FFF799
:101AB000C9FF07463846BDE8F0812DE9FC410646DE
:101AC0000D466A4601A93046FFF7BCFF0446B4B98B
:101AD000019838B10198406920B1019841692846C0
:101AE00088470446009850B10098406938B1009882
:101AF000416928468847074604B93C4600BF20464E
:101B0000BDE8FC8110B500BF01220D4801680D48F9
:101B10000068FEF76AFD01220B4801680B48006867
:101B2000FEF763FD00BF0648016806480068FEF73F
:101B300058FD0548016805480068FEF752FD10BDD4
:101B400088000020900000208C00002094000020DD
:101B500070B505460C4604E0012000F00DF804F8CD
:101B6000010B681EC0B2051EF6D100F005F820700A
:101B700000F06AF970BD000070B5064672B6082222
:101B80001848016818480068FEF72FFD0720FFF786
:101B900041FE802400251CE01448016814480068B8
:101BA000FEF71FFD0220FFF735FE0E4801680E48C4
:101BB0000068FEF705FD00B125430C4801680C489C
:101BC0000068FEF70AFD012C02DD0220FFF722FE6D
:101BD0006410002CE0D1304600F00CF862B62846C4
:101BE00070BD000088000020900000208C000020C4
:101BF0009400002070B504460025FCB1012227485E
:101C0000016827480068FEF7F0FC24480168244872
:101C10000068FEF7E2FC08E00220FFF7FBFD284623
:101C20006D1CB0F57A7F00D907E01C4801681C489C
:101C30000068FEF7C5FC0028EED11FE0012217481E
:101C4000016817480068FEF7D0FC14480168144882
:101C50000068FEF7C6FC08E00220FFF7DBFD28461F
:101C60006D1CB0F57A7F00D907E00C4801680C487C
:101C70000068FEF7A5FC0028EED000BF0948016807
:101C800009480068FEF7ADFC0220FFF7C3FD0548D8
:101C9000016805480068FEF7A0FC70BD88000020C0
:101CA000900000208C0000209400002070B50546B4
:101CB000EA2672B60720FFF7ADFD05F0800068B197
:101CC00001223B4801683B480068FEF78EFC38481B
:101CD000016838480068FEF784FC0CE001223448B3
:101CE000016834480068FEF780FC314801683148DB
:101CF0000068FEF772FC002425E02F4801682F4899
:101D00000068FEF76AFC05F0800030B128480168E1
:101D100028480068FEF765FC05E02548016825486D
:101D20000068FEF75AFC0220FFF774FD22480168A4
:101D300022480068FEF755FC6806050E0220FFF7F2
:101D400069FD601CC4B2082CD7DB1B4801681B4826
:101D50000068FEF742FC0822154801681548006833
:101D6000FEF743FC0220FFF755FD134801681348B6
:101D70000068FEF736FC00240DE00D4801680D48B0
:101D80000068FEF71DFC20B900260220FFF742FD87
:101D900003E0601CC4B2082CEFDB00BF06480168FA
:101DA00006480068FEF719FC62B6304670BD0000B8
:101DB00088000020900000208C000020940000206B
:101DC0002DE9F04105460E46EA2700240AE0305D81
:101DD000FFF76CFF07461FB1002C00DDF72703E07B
:101DE000601CC4B2AC42F2DB00BF3846BDE8F081F3
:101DF00010B51148016811480068FEF7F2FB012296
:101E00000F4801680F480068FEF7EFFB0C480168B7
:101E10000C480068FEF7E5FB0948016809480068BE
:101E2000FEF7DBFB0420FFF7F5FC034801680348DD
:101E30000068FEF7D2FB10BD8C000020940000204B
:101E4000880000209000002010B501220F48016892
:101E50000F480068FEF7C9FB0C4801680C48006891
:101E6000FEF7BBFB0420FFF7D5FC0A4801680A48CF
:101E70000068FEF7B6FB0420FFF7CCFC03480168BE
:101E800003480068FEF7ADFB10BD0000880000208D
:101E9000900000208C00002094000020024A106076
:101EA000024A116070470000880000208C0000206A
:101EB00070B505460E4605B10EB9E22070BD31463B
:101EC000284600F006F804460CB12046F6E700204C
:101ED000F4E72DE9F04105460C4605B114B9E220BE
:101EE000BDE8F0812560204600F043F8074600F089
:101EF000FEF906460EB13046F2E70020F0E77047E3
:101F00002DE9F04104460D4616461F4614B9E2205D
:101F1000BDE8F081606858B16068006940B16068F0
:101F20003B4632462946D0F810C02046E047EFE74E
:101F3000FD20EDE7014609B1086870470020FCE785
:101F400070B504460CB9E22070BD606878B1606875
:101F5000006960B1606800231A46012106692046C5
:101F6000B04705460120FEF785F92846ECE7FD203D
:101F7000EAE770B50446F025002C47D004F10802CA
:101F8000211D2068FFF788FD064600F0B0F90546E0
:101F9000F5B9A068E0B1A0680068A8B1A068406881
:101FA00090B12168A068026820469047064600F07C
:101FB0009EF9051E0CD1A068416820468847064658
:101FC00000F095F9054603E0F62000F090F905468B
:101FD000E5B960680068A8B16068406890B1D4E96C
:101FE0000010026820469047064600F080F9051E62
:101FF0000CD16068416820468847064600F077F9B2
:10200000054603E0F62000F072F90546284670BD4B
:102010002DE9F04104460D4616461F4614B9E2204C
:10202000BDE8F081606858B16068C06840B1606820
:102030003B4632462946D0F80CC02046E047EFE741
:10204000FD20EDE72DE9F04104460D4616461F46FA
:1020500014B9E220BDE8F081606890B160688068E2
:1020600078B12068007818B9FF2D01D12068057972
:1020700060683B4632462946D0F808C02046E04713
:10208000E8E7FD20E6E770B504460CB9E22070BD34
:102090006068C8B160680069B0B1606800231A4622
:1020A000194606692046B0470546D02D0AD11920A9
:1020B000FEF7E0F8606800231A46194606692046D4
:1020C000B04705462846E2E7FD20E0E701460878EC
:1020D000042828D14878072819D007DC78B10128CE
:1020E0000FD003280FD005281BD10EE0082810D0F0
:1020F0000F2810D0112810D0FF2812D10FE0002097
:102100007047D120FCE7D220FAE7D620F8E7D720A5
:10211000F6E7FA20F4E7F420F2E7F320F0E7D42022
:10212000EEE7E120ECE70020EAE70000FEF7C8F860
:10213000FEF73AFCFEF726FBFEF758FB114912A00A
:10214000FEF7FEFCFEF766F9104800F081F8044641
:1021500024B121460EA0FEF7F3FC03E016A0FEF723
:10216000EFFC00BF1748184BD968C0F30F2222EAD2
:10217000010301EA020543EA0543134D2B6100BF49
:1021800000BFFEE74823000825730A000000002076
:10219000206D73655F696E69742829206661696CBA
:1021A00065642077697468207265743D30782530E5
:1021B0003858200D0A00000020696E6974204F4BCA
:1021C0002E0D0A0080008004000C0140014649B138
:1021D000086838B10868007810B908680079704755
:1021E00000BF00BFFF20FAE70146202019B10A68AE
:1021F0000AB10A6850787047014621B1086810B1E9
:102200000868806A70470020FCE70146002071B131
:102210000A6862B10A681278042A07D00A6812783C
:10222000052A03D00A681278022A00D101207047DB
:102230000146002051B10A6842B10A681278012AA9
:1022400003D00A681278082A00D1012070470000E4
:1022500010B504462146024800F004F810BD000005
:10226000400000202DE9FC4104460D46E1265CB308
:10227000206810B1204600F02DF81448144F8ECF7E
:102280008EC012492846FFF713FE064616B13046A7
:10229000BDE8FC810D4820606878032814D1012135
:1022A00020681130CDE90001132300221146206877
:1022B000FFF7F9F8061E01D03046E9E72068407CB8
:1022C00000F0F800216848740020E1E7AC0000202D
:1022D0009C00002070B50446206800F009F805460F
:1022E0000DB1284670BD0020206000BFFAE770479E
:1022F00010B504460CB9E22010BD204600F001F8EC
:10230000FAE770B50446E2257CB1206868B122681E
:102310001078E168FFF7D1FB051E00D1E06020686E
:102320000078062801D100206060284670BD0000BA
:102330000000000000000102030406070809000075
:1023400000000102030400000D2D2D204D4F4438E4
:102350002044656D6F2853544D333229202D2D0DA7
:102360000A2D2D20436F6D70696C65643A204D61B4
:102370007220323620323032352032303A30313A23
:1023800035332076312E352E30202D2D0D0A2D2D72
:1023900020436F6E736F6C65206C6F67202831313E
:1023A000353230302D382D4E2D3129202D2D0D0A6E
:1023B0000D000000D4230008000000209C00000055
:1023C000980B0008702400089C00002054050000B1
:1023D000A80B000800030000C0000000A086010058
:1023E00000000000000000000000000000000000ED
:1023F0000000000000000000C4090000010000000F
:10240000000000000024F4000000000010000000A4
:1024100001000000000000008518000829190008CC
:10242000C519000831190008691800089119000839
:102430000000000044000020000000008080000038
:10244000808000004040000040400000000C01403F
:10245000000C0140000C0140000C01400000000095
:10246000000000000000000000000000000000006C
:04000005080000ED02
:00000001FF
